:10000000208B00207195000073A40200459500002C
:100010004595000045950000459500000000000052
:10002000000000000000000000000000E18F000060
:100030004595000000000000898F000045950000F4
:100040009D90000059B701009D9000009D90000018
:100050009D9000009D9000009D9000009D900000EC
:100060009D9000009D9000009D9000009D900000DC
:100070009D9000009D9000009D9000009D900000CC
:100080009D9000009D9000009D9000009D900000BC
:100090009D9000009D9000009D9000009D900000AC
:1000A0009D9000009D9000009D9000009D9000009C
:1000B0009D9000009D9000009D9000009D9000008C
:1000C0009D9000009D9000009D9000009D9000007C
:0C00D0009D9000009D9000009D9000009D
:0400DC00FFFFFFFF24
:1000E00053B94AB9002908BF00281CBF4FF0FF319F
:1000F0004FF0FF3000F06CB9ADF1080C6DE904CEA3
:1001000000F006F8DDF804E0DDE9022304B07047F2
:100110002DE9F047089E0D4604468E46002B40F020
:1001200082808A42174646D9B2FA82F24AB1C2F1B7
:10013000200105FA02F320FA01F1974041EA030E8B
:1001400094404FEA1748230CBEFBF8FCB9B208FBF9
:100150001CEE43EA0E430CFB01F098420AD9FB184F
:100160000CF1FF3580F01681984240F21381ACF11A
:10017000020C3B441B1AA4B2B3FBF8F008FB10338B
:1001800044EA034400FB01F1A14209D93C1900F102
:10019000FF3380F00181A14240F2FE8002383C44EE
:1001A000641A40EA0C4000211EB1D4400023C6E985
:1001B0000043BDE8F08702B9FFDEB2FA82F2002AFE
:1001C0004FD1CB1B4FEA174E1FFA87F80121B3FB23
:1001D000FEFC250C0EFB1C3345EA034508FB0CF323
:1001E000AB4207D97D190CF1FF3002D2AB4200F2CD
:1001F000E7808446ED1AA3B2B5FBFEF00EFB105566
:1002000043EA054408FB00F8A04507D93C1900F172
:10021000FF3302D2A04500F2D7801846A4EB0804B1
:1002200040EA0C40C0E78B4208D9002E00F0AF80B6
:100230000021C6E900050846BDE8F087B3FA83F15E
:1002400000294BD1AB4202D3824200F2B780841A1C
:1002500065EB030301209E46002EAAD0C6E9004E9E
:10026000A7E7C2F1200C01FA02F3974020FA0CF044
:100270004FEA174E21FA0CFC1843BCFBFEF1050CAB
:100280000EFB11CC1FFA87F845EA0C4501FB08F379
:10029000AB4204FA02F409D97D1901F1FF3C80F068
:1002A0008B80AB4240F2888002393D44EB1A85B224
:1002B000B3FBFEF00EFB103345EA034500FB08F3E9
:1002C000AB4207D97D1900F1FF3C71D2AB426FD927
:1002D00002383D44EB1A40EA014178E7C1F1200CB5
:1002E0008B4022FA0CF71F4320FA0CF405FA01F3B5
:1002F0004FEA174E25FA0CF51C43230CB5FBFEF90B
:100300001FFA87F80EFB195543EA054509FB08FA61
:10031000AA4502FA01F200FA01F308D97D1909F1A0
:10032000FF3047D2AA4545D9A9F102093D44A5EBC2
:100330000A05A4B2B5FBFEF00EFB105544EA0544D5
:1003400000FB08F8A04507D93C1900F1FF352DD274
:10035000A0452BD902383C4440EA0940A4EB0804EC
:10036000A0FB02894C45C6464D4619D316D05EB156
:10037000B3EB0E0264EB050404FA0CFCCA404CEA31
:100380000202CC40C6E900240021BDE8F0873146D6
:1003900030460EE7AC46EDE6184601E74345E6D2A7
:1003A000B8EB020E69EB07050138E0E72846D3E712
:1003B00060468FE78146BAE7614677E708464BE734
:1003C000ACF1020C3D4415E702383C4426E700BF7F
:1003D000704700BF000000002DE9F041D0E90BC7D5
:1003E000D0F828800CEB07043034A0450E461546A3
:1003F00018D81B4F18A3D3E90023ACFB0701FFF764
:100400006FFEA4EB080420F07F40306012A3D3E914
:100410000023A4FB0701FFF763FE20F07F40286064
:10042000BDE8F0810E4C0CA3D3E90023A8FB040126
:10043000FFF756FE20F07F4307F130003360A0FB4A
:10044000040105A3D3E90023FFF74AFE20F07F4013
:100450002860BDE8F08100BF8D49FD1A070000004B
:1004600000CA9A3B000000002DE9F04F694C8FB0A4
:10047000002851D094F86A6016F0010640F0C4805C
:1004800094F82500FF2300F0030084F826301AF0CA
:100490008DFB94F86A0042072FD494F8292094F831
:1004A000353004EB820204EB8303D2F82C80D3F8BE
:1004B0003890B8F1000F11D05648414614F072F848
:1004C00098F800305B0605D506210EF05DFF002888
:1004D00000F037824F48494614F064F898F800302D
:1004E00013F00E0F40F07881236A002B00F09C80FF
:1004F0000C2630460FB0BDE8F08FC0F3C000324686
:1005000004F16B011AF0FEFCFF2884F82600C4D029
:1005100030461AF091FBC0E794F86A30DD0773D5D6
:10052000236A53B193F8202042F0020283F820207E
:10053000236A93F82030D807DAD4364812F0AEFE9A
:1005400084420BD03449354840F6FF1228F095FC20
:10055000404080F311884FF0030002DF94F824300C
:10056000D9070DAD0ED502220D9203212C4B00951B
:100570000122002010F074FB294612F06BFE0028C7
:1005800040F0078202220321254B009500200D92A6
:1005900010F066FB294612F05DFE002840F0D7817E
:1005A000204812F0B7FE68B178300BD01A491B48CA
:1005B00040F61E2228F061FC404080F311884FF085
:1005C000030002DF134812F075FE84420BD012497B
:1005D000124840F6212228F050FC404080F3118858
:1005E0004FF0030002DF236A0BB113F0B9FD94F85A
:1005F0006A3000206FF3000384F86A3014F0BCF90D
:100600000646002800F09A81002630460FB0BDE86B
:10061000F08F00BFAC38002074F0020004ED02003F
:1006200095270100C838002012F066FD8246002898
:1006300000F0A58112F06CFD8346002800F0A48133
:1006400015F030F80546002800F09B814FF6FF7347
:10065000406F2B8505F11C030B93002800F08B8164
:1006600005F1680205F164010EF09AFEB5F860200C
:1006700095F8391095F87A7095F83C0095F8D8C03F
:1006800022F4EF6222F0070201F03F0161F07F01E6
:1006900042F4887242F0010285F83910C449A5F885
:1006A000602027F0070E4FF01B1300272CF0070CDB
:1006B000062220F00700C5E9163185F87AE085F8B2
:1006C000D8C0A5F8C020C5E9127785F83C006F674F
:1006D000A5F87870EF852F6385F83B702F65A5F836
:1006E000C470A5F8C870A5F8D070A5F8CC70A5F8AE
:1006F000E47085F8E670C5F80871A5F80C71A5F8E6
:10070000207111F0E7FF95F8862195F8AEC1A5F8A4
:100710003871C5E94A0167F3451295F83A0195F831
:100720007A1085F8862195F86621A5F8407120F0A9
:10073000030021F0180167F3C30C22F0070285F8CB
:100740003A0185F87A100020002185F8AEC1C5E98C
:100750004C0185F8662185F84371A5F8647185F828
:10076000D970A5F88471C5F8E070A5F8AC71A5F84A
:10077000B871C5F844A115F0DBFAA5F8D20015F060
:10078000DDFAD5F8BC118B4AA5F8D4000A40C5F8AB
:10079000BC2115F0D9FA95F8C02160F3020285F862
:1007A000C02115F0D7FA95F8C0210B9B236260F3A6
:1007B000C502C4E918ABC5E97377C5E97177C5E926
:1007C0000577C5F8D47185F8C0212F70ED611BF055
:1007D000D5FC002840F0B78094F824300121C3F301
:1007E00042030DA88DF834300EF04EFF30B9236A65
:1007F000002B3FF47DAE13F0B3FC79E699F80110BD
:100800000246404613F0F6FA6B4AB4F868900025A9
:100810003123C4E90235A0FB0201C4E9055562A3F6
:10082000D3E9002325706560FFF75AFC206110F0C2
:10083000BBFA0746B9F1000F08D198F8005005F04F
:100840000F05A5F10105B5FA85F56D0994F82400A9
:1008500065F3000010F0010584F824002ED0DFF8C5
:100860007891236955490493002002250DF1300841
:1008700001930591CDE907980321CDE90200069483
:100880002A4600903B460C9510F062F9414612F062
:10089000E1FC0028ABD14A4905914AF2D8320092D6
:1008A000CDE90798CDE90300CDE9010006943B4668
:1008B000012203210C9510F04BF92DE041482269EB
:1008C000414BDFF814E10694A9FB00014FF0910CB5
:1008D0000CFB091102F2471CC3F800C00492374A0E
:1008E00009934FF002094FF6FF7C05920DF1300895
:1008F0002DA3D3E90023CDE907E80295CDF8309088
:10090000CDF80CC0FFF7ECFB4A46CDE900503B4662
:100910002846032110F0C6F8414612F09BFC00283F
:100920007FF465AF94F86A3043F0010384F86A30CD
:1009300014F022F800287FF467AE01201AF018F9AD
:10094000D7E51226D5E513F00BFC0326D1E51F48A9
:1009500012F0B0FC84423FF4CBAD40F618221C49A3
:100960001C4828F08AFA404080F311884FF00300B9
:1009700002DF0C26BDE505F16C00686770E607260E
:10098000B7E5584612F0CAFB504612F0BBFB0726EB
:10099000AFE50E4812F08EFC84423FF4A9AD40F65C
:1009A0000A22DCE7AFF300808D49FD1A0700000042
:1009B000480148010000FFF600CA9A3BDD3F0100F4
:1009C000613F0100002AE78420390020AC38002074
:1009D00074F0020004ED0200952701000000000001
:1009E000F0B590F824308BB0C3F342030D460446B3
:1009F00001210DF1230016468DF823300EF044FE40
:100A000071780246284613F0F5F91D491AA3D3E977
:100A10000023A0FB0101FFF763FB23699842054611
:100A200020D21B1A0020174A174E0293A21AA6FBC7
:100A30000232164901909209002309AE0232CDE933
:100A40000516CDE903330321D2B2009318460227DD
:100A5000099710F0EDF8314612F0FCFB48B925611A
:100A60000BB0F0BD02D9C01A0023DCE700200BB0A8
:100A7000F0BD0C200BB0F0BD8D49FD1A0700000041
:100A800000CA9A3BAC38002009CB3D8D9527010068
:100A9000F8B5194E9DF8184096F8445015F0010726
:100AA00022D196F832E0B1874001E100DFF84CC076
:100AB00000F0200401F018012EF0380E0C4363F30F
:100AC0004205A2FB0C0144EA0E04912303FB021130
:100AD00086F8445006A3D3E9002386F83240FFF796
:100AE000FFFA30643846F8BD0C273846F8BD00BF21
:100AF0008D49FD1A0700000044390020002AE784D0
:100B0000F8B504469DF81800A57D0F4E22844901D2
:100B1000C00000F0180001F02001A3FB06670143AC
:100B2000912225F03805294302FB0377A17504A320
:100B3000D3E9002330463946FFF7D2FA6062F8BDA8
:100B40008D49FD1A07000000002AE784000000001C
:100B50002DE9F04F044600F1350190F8440094F877
:100B60003230C0F3400060F386138DB084F8323029
:100B700010F050F9A68F94F832304F48E461002508
:100B8000A6FB0001912203F0790302FB0611C4E9E0
:100B9000055584F83230257045A3D3E90023FFF7CB
:100BA0009FFA236C656006460933A6F13102934231
:100BB0004FF03101C4E902152ABF25642361226187
:100BC00010F0F2F8256A80460DF12C09002D4DD069
:100BD000CDF82090394DB4F83CA039493648226907
:100BE000DFF8E8C00492651BA1FB0535AAFB0001F4
:100BF000912303FB0A11334B05934FF0000A2CA3FA
:100C0000D3E900230227CDF81CC006940B97CDF83A
:100C10000CA0FFF765FA104619464FF47A720023CC
:100C2000FFF75EFA2D090435EDB22A4602904346DD
:100C30000321CDF800A0504601960FF089FF4946E8
:100C400012F008FB054668B994F8443043F00103FC
:100C500084F8443013F07CFC0446F8B128460DB00B
:100C6000BDE8F08F0C200DB0BDE8F08F21690A952A
:100C70004B460AAA03200B9501F06EF90B99002947
:100C8000A6D011480AA3D3E90023A1FB0001FFF776
:100C900027FA0A9B20F07F48984499E7384619F0D4
:100CA00067FF20460DB0BDE8F08F00BFAFF30080B6
:100CB0008D49FD1A07000000002AE784443900200E
:100CC000398EE338A947010000CA9A3B95270100F5
:100CD0002DE9F04FC38D458E90F80E611D440D44F3
:100CE000904616F007028BB00446ADB20AD0561EED
:100CF000042E00F26983DFE816F0BF0130029D0187
:100D00004D013202B0F8E890A5EB090318041FFA70
:100D100083FA00F16A8194F93930002B0F46C0F252
:100D2000628294F8E43084F8E53094F8842194F8F1
:100D3000853194F80C1184F80D1193420AD094F87F
:100D4000863103F00F03062B04D1002384F885219C
:100D5000A4F8C830BC4BD4F808611A68944204BFA8
:100D600000221A60002E00F057813068002800F041
:100D70005381B4F81031618D4268C4F808218B4268
:100D8000B4F8122100F03782B4F81411B4F828C076
:100D9000A6F806C04FF0180E4FF0000CF383328413
:100DA000718486F804E086F81CC0314612F0BCF964
:100DB00012F0C4F9A368002B0ADAE268616823F034
:100DC00000438A422CBF90448844A360A8EB0308E8
:100DD000608DB4F8106110FB0AF080B2B0FBF6F33E
:100DE00016FB03F292B290421FFA83FB80F002815D
:100DF000121A40F2E243954803FB02F2A2FB000103
:100E00008FA3D3E90023FFF76BF920F07F408044E4
:100E1000E18D94F93930A9EB05055D440F442F4469
:100E200040F2E249002BE78509FB06F5C0F2058296
:100E3000D4F81801854982A3D3E90023A0FB01015E
:100E4000FFF74EF920F07F4909F101092F46B4F868
:100E50001421B4F812117E4B668542F2107000FB2B
:100E600002527C48A1852B442844B3FBF5F3013A98
:100E7000B2FBF5F2B0FBF5F5A4F8C22098B28A1DDA
:100E80009042A4F8CE00A4F8C65002DD401A0638FD
:100E900080B294F80E31A4F8CA001B0744BF0023A7
:100EA000A4F8C430022101201DF0C0FE002202215E
:100EB000054601200EF0C2FA67494FF4F072204651
:100EC0000EF04EFA00F1050A5FFA8AFA634B0094BD
:100ED0005246012100200FF0C3FE30F002030BD078
:100EE0005F49604840F6CD4227F0C7FF404080F39D
:100EF00011884FF0030002DF544EA7FB066750A392
:100F0000D3E9002330463946FFF7EAF8564A20F085
:100F10007F4BABFB02230721B01A01FB0B3367EBBE
:100F200003014FF47A720023FFF7DAF894F939706D
:100F30004E4A4F492669CDF804B011EA270138BF5F
:100F4000114603464FF6FE774A480293CDE9046105
:100F50004346079008940694CDF8009052460397B4
:100F6000012100200FF0F4FD30F002030BD03C49CA
:100F70003C4840F6E74227F080FF404080F311886C
:100F80004FF0030002DF002D40F0518100200BB034
:100F9000BDE8F08F838D90F80E01D4F8EC20D4F8E2
:100FA000C4111D440635ADB26FF30200A4F8E85039
:100FB000A2F10903158184F80E0121B194F86601AC
:100FC000860740F18B81D4F8C801002800F09C818D
:100FD000D4F8CC11086842F8090C0B6052F8091CCF
:100FE000C4F8CC3109B9C4F8D4316FF076000BB035
:100FF000BDE8F08F06FB130340F2E24213489BB2B8
:1010000002FB03F3A3FB00010DA3D3E90023FFF7C9
:1010100067F8A8EB0008FBE61149124840F62242A7
:1010200027F02BFF404080F311884FF0030002DFD0
:1010300030689EE66FF00F000BB0BDE8F08F00BF88
:101040008D49FD1A07000000A039002000CA9A3B14
:101050007FC3C901FF596202201500203D4E0100E7
:1010600018F1020004ED02008D49FD1A6D9E010089
:10107000959C0100F14D0100C94F012012F064F868
:101080000646002800F05181C6480EF033F90546A7
:10109000002800F04A81C44B1A68002A00F01C8125
:1010A00012F070F83368D4F808215A600C23C4F8A1
:1010B00008616B71D4F818312A79BC4994F80E0193
:1010C00042F00302A1FB031300212A71E97194F895
:1010D0001C112972C3F38F23A168A5F80930B4F855
:1010E0001031A5F80B300322B4F81231A5F80D30F9
:1010F00062F30200B4F81431A5F80F300029C4F8E7
:10110000F08084F80E010BDAE268636821F0004198
:101110009A422CBF424408EB0302511AC4F8F01063
:10112000A34B09350122C4F8EC5010460221DF60C0
:101130009C600EF0B7F900283FF457AF9D499E48D8
:1011400040F6753227F099FE404080F311884FF049
:10115000030002DF6FF0760019E7984F8DE79248A1
:1011600094F8E410D4F8EC20D4F8C43184F8E510F5
:10117000002594F80C11056094F8840184F80D1191
:1011800084F88501A2F10901C3B194F866018007D2
:1011900014D494F8BF01C70710D4D4F8D001834207
:1011A000D4F8C80100F0DB8068B9187900F00300BA
:1011B000032800F0E380C4F8C83106E0D4F8C80181
:1011C000002800F0AB80D4F8CC31186842F8090C44
:1011D000196052F8093CC4F8CC11002B00F0A8802B
:1011E0006FF08B00D3E694F8D930002B3FF499AD23
:1011F00084F8D92099E5A18D91427FF4C5AD40F2E4
:10120000E24CB4F81411B4F8C2E00CFB03FB42F258
:10121000107C0CFB01BC0CF1FF3CBCFBFBFC1FFA7F
:101220008CFCE6457FF4B2AD01233371BDE50122AC
:10123000104602210EF002F9A8E6A26C236C604E63
:1012400003FB1A23A3641AF0EDFF074694F8D800B5
:10125000C0F3C2001AF0EAFF074405FB07F7594B39
:10126000A26C94F81C1107F5742707F23F27A3FB23
:101270000737BF0C07FB0BF06B080244963B9A4202
:1012800009FB01FC28BF1A464FF0000EC4E91132D9
:10129000276441A3D3E90023A0FB0601C4F850C092
:1012A000C4F8E0E0FEF71CFF404B8446D4F8180178
:1012B000A3FB0030800A09FB00F0A0FB060136A367
:1012C000D3E90023A8EB0C08FEF70AFFEF1BB4F8E4
:1012D000106120F07F49BAE51C60E1E694F8BF0197
:1012E000C5073FF570AED4F8D0018142D4F8C801EB
:1012F00023D000287FF46CAE087900F003000328A7
:1013000043D0C4F8C81165E642F8091CC4E971333A
:10131000C4F8CC3100297FF468AE64E642F8093C99
:10132000C4E97111C4F8CC1157E76FF068002EE6DC
:10133000C4F8D4116FF08B0029E60D68C4F8D051C1
:1013400000287FF445AE086842F8090C0B6052F89B
:10135000091CC4E9723300297FF447AE43E61D68D7
:10136000C4F8D05100287FF42EAF186842F8090C59
:10137000196052F8093CC4E972112EE7D8790328A4
:10138000F3D00A287FF417AFEFE7C8790328DAD043
:101390000A28B6D1D7E700BF8D49FD1A0700000023
:1013A0008DA40100343A0020A03900205917B7D18C
:1013B0003807002018F1020004ED0200112100009E
:1013C00000CA9A3B83DE1B430649074840F6C932F0
:1013D00027F053FD404080F311884FF0030002DFF7
:1013E00000274AE618F1020004ED020000000000A8
:1013F0002DE9F04F037F0F6897B00E461546C3F3F3
:10140000801300F11E010446062214A8D7F800B08C
:101410002F688DF8473029F098F996F81180B8F1C7
:10142000FF0F0DF1480A5CD052460DF147014046CE
:1014300019F070FA9DF8473002338DF84730214695
:10144000032251F82E3B0A9305F1080005F1040927
:1014500029F07BF905F11803042204F12A0148461A
:101460000B9329F072F90B9B0522184604F13A01FF
:1014700029F06BF90B9B052118460EF005F994F83D
:101480003F206B7F00F03F0060F30503C2F30401CF
:101490006B77A977A18EE981012889B202F01F0339
:1014A00005D91B3303F01F030B2B00D8F9B995F8AE
:1014B0002030E6680A98002262F300030127CBF887
:1014C0001420214685F82030277111F02DFE306858
:1014D0003771314611F028FE11F030FE17B0BDE82B
:1014E000F08F5046062214A929F02FF9A7E7336898
:1014F00097F8D8004FF0000CC3F804C094F837C038
:1015000094F8363043EA0C232B825209638E0D93F4
:1015100062F3C50040F2E24202FB01F387F8D80013
:101520000B931AF07FFE034697F8D8000C93C0F394
:10153000C2001AF07BFE0C9B0B9ADFF814C3B5F8BF
:1015400010E0BB49034402FB03F303F5742394F852
:10155000310003F23F23ACFB03C34FEA520C40F2CD
:10156000E24202FB00F29B0CACF19600AA63A86277
:101570006B62238F0B9AADF83A3042F210709BB237
:1015800000FB03231144DFF8CCC2B1FBF2F10EF1F2
:101590000600013BB3FBF2F3A7F8C2308BB28342E3
:1015A0009444A7F8CE30BCFBF2F2A7F8C62003DDC6
:1015B000A3EB0E03063B9BB2A7F8CA3004224946B0
:1015C00007F1DC0029F0C1F8234613F81C2FC2F301
:1015D0004011DA078DF83C100C9100F10F814FF4A7
:1015E0008073A3839BF8260019F020FF002800F0E9
:1015F000E480062204F1240104F12B0029F0A5F86F
:10160000B8F1FF0F00F0E08014A9062204F12500D4
:1016100029F09BF89DF84730A3775146062204F144
:101620001F0029F092F897F8D830E9892A8AA28613
:10163000C3F3C20384F83830BDF83A30E3866186DC
:10164000384614F03BF82146A881E08074680A9877
:1016500011F06AFDAB89E3801B2323710C9BD4F846
:101660000080002B40F0B7809DF83C302377214666
:10167000404611F059FD11F061FD95F84500B5F8AF
:101680004080B5F84240012100F007001AF0FAFB53
:101690004444684A04F5E17480463123201800244C
:1016A000C7E90234A0FB02017C605FA3D3E90023F9
:1016B000FEF716FDF3680D9A6D6A40F2E24909FBE8
:1016C000023920F07F400B9B386122460221012025
:1016D0005D1B0DF0B3FE584612F020FF821C564BE6
:1016E000CDF800B0D2B2204601210FF0B9FA09F2CC
:1016F000B2490128A9EB080900F08C809BF824303E
:10170000DB0773D4384613F0D9FFDFF828B1A5FB07
:101710000B4545A3D3E90023804629462046FEF722
:10172000DFFC464A069720F07F4AAAFB02230721E6
:1017300001FB0A334FF4E471B66808914049079100
:1017400040490591A01A65EB03013B69049300240D
:101750004FF47A7200230394FEF7C2FC32A3D3E95C
:1017600000230546A9FB0B01CDE901A5FEF7B8FC56
:1017700008F1050820F07F405FFA88F83A3E3346CA
:1017800000904246204601210FF0E2F930F00203BA
:101790000BD02D492D4840F2C91227F06EFB404076
:1017A00080F311884FF0030002DF0122104602216E
:1017B0000DF044FE17B0BDE8F08F0146062204F19B
:1017C0002B0028F0CDFF1BE70622002104F12500A5
:1017D00028F0C6FF1EE76B7F43F040036B77484657
:1017E00018F0FEFE0123E883237740E7002301225F
:1017F0000093184611460FF033FA83E71249134855
:10180000F12227F03AFB404080F311884FF00300AB
:1018100002DFE4E611F05AFD83453FF46FAF18F0A4
:1018200019FA6BE7AFF300808D49FD1A070000003D
:101830007FC3C90100CA9A3B799C01008D49FD1AFA
:101840002D9C0100959C010078F1020004ED02003E
:1018500083DE1B43FF5962022DE9F04F8DB0044631
:1018600004930020BDF868309DF85C80BDF860A04E
:10187000BDF864B00393CDE90541164613F08AF82C
:10188000002800F09C8108F00109054648460FF049
:10189000B1FAB9F1000F67D12B6A05F11C0207926A
:1018A000002B68D02F6A3C6897F84400C0F3C00151
:1018B00000F007001AF0E4FAB7F84020B7F842C089
:1018C000C94900F5E1731A446244A2FB0101C4A3B3
:1018D000D3E90023FEF704FC20F07F40206130466E
:1018E00019F086F995F83330FF226FF3410385F83C
:1018F000333085F834205EB3A8F10203012B40F2A7
:101900006281049995F8333095F8442061F300031F
:1019100085F8333068F34202169985F8442005F1C2
:101920002400062228F011FF039B2B86059A069BB4
:10193000079800960021FFF7E3F81AF01FFC002833
:1019400040F05E812846FFF703F90DB0BDE8F08F47
:1019500019F0FAFE0028CFD016990498324619F0F3
:10196000D1FA85F83400C7E706210DF00DFD0028F7
:1019700092D11220E9E711F0BFFB0890002800F097
:10198000748113F08FFE0446002800F08E81203011
:101990000DF092FE04F11C07002840F05A8103214B
:1019A00004F124001AF022F9606FA4F82AA04FF67F
:1019B000FF72A4F82CB02285002800F0588104F1B1
:1019C000680204F164010DF0EBFCB4F8602094F8B7
:1019D0007A108648E06522F4EF6222F0070242F4B2
:1019E00088724FF0000B42F0010221F007014FF026
:1019F0001B10A4F8602084F87A10A065C4F874B0B5
:101A0000A4F878B0A4F82EB0C4F830B004F13400D3
:101A100018F09EFD94F8392060F3050284F839200F
:101A200001210DF12F001AF0E1F89DF82FE0704828
:101A3000704A84F83BB0A0FB0E30C00800EB4000B9
:101A4000AEEB800140F2E24C0CFB0AFA053194F84F
:101A50003CC00991039994F83900A38DA4F8C4B04F
:101A60002CF0030E42F2107C0CFB01AC099984F8B7
:101A70003A106149A4F8C8B000F03F005244514404
:101A8000B2FBFAF284F839000CF1FF3C90B2BCFBD7
:101A9000FAFCB1FBFAFA991DA4F8C2C088424FF0D3
:101AA000060CA4F8D0B0A4F8CCB0A4F8CE00A4F8EA
:101AB000C6A084F83CE0A4F8C0C002DDC01A063815
:101AC00080B294F8D820A4F8CA004FF0000A22F09F
:101AD000070284F8D820A4F8E4A084F8E6A0C4F8AB
:101AE00008A1A4F80CA1A4F820A110F0F3FD02466F
:101AF0000B4694F8AE0194F83A1194F886E194F804
:101B00007AC0A4F838A1C4E94A2394F86621089B56
:101B1000C4F844316AF3C30021F003016AF3451E9F
:101B20002CF0180C22F0070284F8AE0184F83A1168
:101B30000020002184F886E184F87AC0C4E94C01D1
:101B400084F86621A4F840A184F843A1A4F864A114
:101B5000A4F884A1A4F8ACA1A4F8B8A114F0E8F802
:101B6000A4F8D20014F0EAF8D4F8BC11234AA4F87F
:101B7000D4000A40C4F8BC2114F0E6F894F8C0215F
:101B800060F3020284F8C02114F0E4F894F8C02154
:101B9000C4F8D4A160F3C5023121C4E973AAC4E931
:101BA00071AAC4F804A0C4F80CA084F8C021A160F4
:101BB0002F62C4E905AA84F800A0E46174E60C2051
:101BC0000DB0BDE8F08F002019F036F895F83330ED
:101BD00043F00203C84685F8333092E6AFF3008045
:101BE0008D49FD1A0700000000CA9A3B48014801D0
:101BF000ABAAAAAA7FC3C901FF5962020000FFF67F
:101C00002C6AA36D5BB12B492B484FF4976227F0E8
:101C100034F9404080F311884FF0030002DF04F1F3
:101C20004C0104F148000DF0BFFB064600282FD000
:101C30002768A665D7F84441ECB1204611F062FA56
:101C4000384613F035FD002303202B620DB0BDE8AC
:101C5000F08F18491848BF2227F00FF9404080F351
:101C600011884FF0030002DF99E607206DE604F1CA
:101C70006C006067A3E60F490F4840F2C14227F0AD
:101C8000FCF8404080F311884FF0030002DFD4E7F6
:101C90000849094840F2BA4227F0EFF8404080F383
:101CA00011884FF0030002DFC2E7089811F02AFA0A
:101CB00007204AE6D4F1020004ED02000000000013
:101CC0002DE9F04F80468DB005460C46174600F1D1
:101CD000240106220AA818F81C6F28F036FD95F892
:101CE0001CA018F0010FCAF3401BC6F3C016DA4659
:101CF00040F006810023AB83A17C94F8118011F0A1
:101D000001014FF0060200F0E58005F11E0105F12A
:101D10002B0028F01AFDB8F1FF0F00F0E3804046D9
:101D200005F11F0205F11E0118F0F4FDAB7F02332F
:101D30000AA9AB77062205F1250028F006FD2368E5
:101D4000F989D3F800903B8AB9F83020EA86AB864F
:101D500069861AF065FA85F838003E68304613F057
:101D6000ADFCD4F80480B8812946E880286811F0D9
:101D7000DBF9BB89A8F806301B23D8F8005088F897
:101D80000430BAF1000F40F0C88088F81CB041461A
:101D9000284611F0C9F911F0D1F997F84400FD89EE
:101DA000E368D6E9012740F2E24C9742C0F3C00154
:101DB00000F0070038BF17460CFB05F503F12008BB
:101DC0001AF05EF80022034602210120A8EB030866
:101DD0000DF034FB484612F0B5FD021D584BCDF80E
:101DE0000090D2B2012100200EF03AFF30F0020341
:101DF000BA460BD05349544840F2C93227F03DF857
:101E0000404080F311884FF0030002DF00273B467B
:101E100003220121009738460EF022FF304613F0CE
:101E20004DFC4A49A268DFF82C91494B069640F2D6
:101E3000F934CDE90714059333690493A5FB0945EB
:101E4000A2F1090E00F1050C3BA3D3E900232046C3
:101E50002946AEEB0A0A5FFA8CF60397FEF740F9C3
:101E6000104619464FF47A720023FEF739F932A36F
:101E7000D3E90023844629462046CDF808C0FEF762
:101E80002FF92DA3D3E900230446A8FB09010194EF
:101E9000FEF726F920F07F40534600903246384640
:101EA00001210EF055FE30F002030BD025492648E3
:101EB00040F2FA3226F0E1FF404080F311884FF003
:101EC000030002DF0122104602210DF0B7FA0DB027
:101ED000BDE8F08F05F12B0028F042FCB8F1FF0FB0
:101EE0007FF41DAF0622002105F1250028F038FC03
:101EF000AE770AA9062205F11F0028F026FC1EE78E
:101F0000104911484FF4527226F0B7FF404080F359
:101F100011884FF0030002DFECE67B7F43F04003C3
:101F20007B77381D18F05CFB0123F88388F81C30A0
:101F30002DE700BFAFF300808D49FD1A07000000B8
:101F4000419E0100D4F1020004ED0200459E010013
:101F50006D9E010000CA9A3B2DE9F04F8FB01C46E0
:101F6000FF26099304310023DFF80091DFF800B168
:101F7000DFF800A123608DF82F60049605930446D6
:101F8000089115460C9306930DF134080CAF022608
:101F9000CDE9019800972B460DF12F022146002034
:101FA0000D960EF0A3FE02282DD00D9B002B30D1F4
:101FB0009DF82F30FF2B3BD0052BE9D1002013F0EB
:101FC00085FB0028E4D090F93930002BE0DB049940
:101FD00002690C9BFF290CD00699079218460493BE
:101FE0000EF0E4FE059B089A99188842049B079A14
:101FF00021D8CDE905239DF82F300493C8E7214669
:1020000000200EF0B9FE0D9B022BF8D00D9B002B8B
:10201000CED073225946504626F02FFF404080F321
:1020200011884FF0030002DF9DF82F30FF2BC3D142
:10203000049BFF2B10D0DDE905320B481344A3FBB2
:102040000001072202FB031105A3D3E90023FEF7D9
:1020500047F8099B803018600FB0BDE8F08F00BFD3
:1020600000CA9A3B000000008D49FD1ADDA1010065
:102070002CF2020004ED020070B51C4682B0154639
:10208000064601AA02200195FFF766FF23680BB3FD
:102090000198431B1B021FD429460EF087FE1A4BE2
:1020A0000246A0FB0301072303FB021114A3D3E99B
:1020B0000023FEF715F8226802442260002A09DB9B
:1020C00040F2E24101FB06F0904203D2121A904224
:1020D000FCD3226002B070BD014628460EF066FEB9
:1020E000094B0246A0FB0301072303FB021104A3D3
:1020F000D3E90023FDF7F4FF2268121A2260DDE71E
:1021000000CA9A3B000000008D49FD1A0000000043
:102110002DE9F041B0F8942188B0054640F2E24341
:102120004B4805AE03FB02F30027A3FB0001062486
:1021300045A3D3E9002377600597B7608DF80F407A
:10214000FDF7CEFF0DF10F020196B5F88A3100922E
:1021500004460121284604AA049418F041F89DF889
:102160000FC00CF1FF34E4B20DF11603394603EB56
:1021700044042F4605F10C0E4FF6FF7097F8953189
:1021800097F8942142EA03220FFA82F8BCF1000F7B
:1021900009D03346824203D0198891421ED00121D2
:1021A00002339C42F6D10237BE45E7D161BBBDF890
:1021B0001430D5F8EC1040F2E24202FB03F2180AA8
:1021C000C5F8182148700B7095F80E31042262F39F
:1021D000020385F80E3108B0BDE8F081D5F8EC10A7
:1021E00040F2E24303FB02F3120AC5F818314A70C9
:1021F00081F8008095F80E31042262F3020385F81D
:102200000E3108B0BDE8F081D5F8EC30032203F8B8
:10221000042C13F8052C95F80E11052042F003024A
:1022200060F3020103F8052C11240F20202203F88B
:10223000024C03F8010C1A7085F80E1108B0BDE8C5
:10224000F08100BFAFF300808D49FD1A0700000048
:1022500000CA9A3B0000000038B504461AF020FE80
:10226000A27DC2F34103013303F00303032B34D0F7
:1022700063F34202A27503F1250019F0BFFD636804
:102280000BB32369FBB11CF05DFB05460EF08CFD22
:10229000C11C00201CF01CFB1CF0A8FB1CF052FB16
:1022A00029460EF083FD124B0246A0FB03010723D3
:1022B00003FB02110CA3D3E90023FDF711FF2369EF
:1022C0001B1A236138BD0EF06FFDC11C00201CF0ED
:1022D000FFFABDE838401CF089BB6FF34202A275DB
:1022E0002520CAE7AFF3008000CA9A3B0000000037
:1022F0008D49FD1A000000002DE9F04F87B004461B
:102300001CF0D0F810F0FF0F0AD119F0CFFDC04833
:1023100021461BF09DFF1CF097F807B0BDE8F08F39
:102320001CF0E0F807461CF027FA06461CF02EFACF
:1023300080461CF049FC83461CF02AFC81461CF0B8
:10234000E3F982461CF0C6F919F0B0FD17F0FF0F53
:10235000DDD0012011F05EF80746002800F047812B
:1023600016F0FF065FFA8BFB40F03881BBF1000FDF
:1023700040F0C080FF2532462B46594620461AF0D1
:10238000CBFF0028C3D0636800225FFA8AFA8DF879
:102390001320002B00F0C680636893F820309A0762
:1023A00000F1C0803A7F02F00F010729AFD0A37D72
:1023B0001B0740F13781002940F0A2807B7F252B4D
:1023C00000F2CC80042011F025F800289FD01CF0EA
:1023D00015FB636A064643B9228C40F2712303FB66
:1023E00002F3B0FBF3F203FB1206236889481B6972
:1023F0000722A3FB000102FB031183A3D3E90023FF
:10240000FDF76EFEA0F24233B34280D31CF054F9C4
:102410002846636819F018F8E27D9607804640F177
:102420005A81002800F05781814601261CF068F887
:102430003B7FCDF8089007F11E02814605A849466A
:10244000C3F38013039000922046002201961AF0F5
:10245000A7FF48461BF0D6FF1CF01AF8002840F0F2
:102460004F816D4821461BF0F3FE6168A37D91F812
:10247000202043F0800342F0010281F82020A37560
:1024800010F0E6FF1623064603714FF6FF733F7FF9
:10249000C380494624221C3028F057F9337FB460AA
:1024A000C7F3401767F3451333771CF04BFA00214D
:1024B00030610120059F1BF0B5FFBBF1000F08BF85
:1024C000FF257576E37D3F1A13F00203776103D091
:1024D000B8F1000318BF0123B27E63F30002B276A5
:1024E00010F0B6FF3146F060306810F0C9FF10F010
:1024F000D7FF12E75FFA89F019F022F805463AE7AC
:10250000012913D17B7F0C2B7FF401AF00230193B2
:102510000095D20907F1240320461AF029FE00286D
:102520007FF450AF3A7F12F00F014BD0062949D00B
:10253000022900F08680012910D17B7F0C2B7FF4CB
:10254000E6AE0DF1130301930095D20907F12403C0
:10255000002120461AF00CFE00BB3A7F02F00F0269
:10256000042A7FF4D4AE7B7F252B3FF6D0AEA37D2B
:10257000D8077FF5CCAE1BF0C3FF3B7F0278C3F3D7
:102580008013B3EBD21F7FF4C2AE0830062207F1EE
:102590001E0128F0CAF800287FF4B9AE7B7F002B1B
:1025A0003FF4B5AE63682BB13B7F03F00F03072BFD
:1025B0007FF4ADAE9DF813302A46594650461AF0C6
:1025C00017FEA4E67B7F252BC8D8A17D890602D5FE
:1025D0006168002937D0252BE1D9BFE7A07D5FFADC
:1025E00088F1C0F3C00018F04DFF0546C3E60B4963
:1025F0000B4840F2C32226F040FC404080F3118893
:102600004FF0030002DFABE600CA9A3B0000000077
:1026100051CF01008D49FD1A21D1010024F402009F
:1026200004ED0200C2F380112B4607F11E02204682
:102630001AF08CFE00283FF475AF3A7F02F00F01CC
:10264000B9E67B7FC7E796201CF0B6F800201BF0A8
:10265000D1FF5946504600232A461AF0C9FD0028EA
:102660007FF455AE1BF04CFF3B7F0278C3F3801321
:10267000DB01064602F0700243F0030313430C2211
:1026800028463370727018F0DFFEE37D9D07014627
:1026900027D530B33378304643F0400300F8023B8F
:1026A000062228F052F807F11E01062206F1080062
:1026B00028F04BF830461BF0A5FE1BF0E9FE60BB8E
:1026C0001CF094F9A37D1B4843F00103A375214638
:1026D0001BF0BEFD21E6A67D04F11909C6F38016A4
:1026E000A4E6A37D3278C3F38013304663F38612E9
:1026F00000F8022B04F11901062228F026F8D2E78F
:102700000D490E4840F2914226F0B7FB404080F35D
:1027100011884FF0030002DFA3E60749074840F2A3
:10272000165226F0AAFB404080F311884FF00300B8
:1027300002DFC5E765CF010024F4020004ED0200CA
:102740002DE9F04F8FB00DF13701334F0B900DF1A4
:10275000360010F05BFD9DF83730DFF8D0909DF823
:1027600036A00A930EF020FB3C68A4FB094528A381
:10277000D3E90023804629462046FDF7B1FC0B9B98
:10278000069383467868254B0593002620A3D3E95A
:102790000023A0FB0901CDE90766FDF7A1FC204B52
:1027A0002BF07F49A9FB03BC20F07F40072303FBEC
:1027B00009CCCDE90360B4EB0B0065EB0C014FF4E1
:1027C0007A720023FDF78CFC4346CDE901900A9A0A
:1027D0000096032150460EF0BBF930F0020313D1EE
:1027E000104A1148002323F017FC58B19DF83720F8
:1027F0009DF8360003211FF097FF6FF073000FB0B4
:10280000BDE8F08FF868FAE76FF08B00F7E700BFDC
:102810008D49FD1A07000000BC470020CD270200AB
:102820008D49FD1A447B0B00CC47002000CA9A3B1F
:1028300038B50F4D04460EF0B7FAA9680EF0B6FA97
:102840000C49B0FBF4F40444686807A3D3E90023FF
:10285000A0FB0101FDF744FC20F07F40844294BFBF
:102860000020012038BD00BF8D49FD1A070000007F
:10287000BC47002000CA9A3B43682DE9F0411B6821
:10288000076901258D401D42044616460AD11549A7
:10289000154840F2BB4226F0F0FA124840F2BB4124
:1028A00026F062FE3B681D4263681B6818BF86F015
:1028B00001061D420AD10B490B4840F2914226F015
:1028C000DCFA084840F2914126F04EFE36B1A3688A
:1028D000DB6829462046BDE8F0411847A3681B691C
:1028E000F7E700BF84F90200AEF9020038B50D46E3
:1028F000044648B9054829F0C0FF2A460146044865
:1029000026F0BBFA1DF03AFF204638BDC6F902009A
:10291000D4F9020038B5224D224C04F0DBF900F066
:1029200097FD2946204827F067FE03F0AFFF42F2EB
:10293000107026F09EF809F09BF91C4A5388442138
:10294000013B01FB03230433236000F089FD431E98
:1029500058425841A221FFF7C9FF2368D87E0B389F
:102960003A284FF0A3018CBF00200120FFF7BEFFE3
:102970002368587E0B381C284FF0A5018CBF00201F
:102980000120FFF7B3FF20682946073027F06FFECC
:10299000B0FA80F0BDE83840A8214009FFF7A6BF93
:1029A000F4F902000C2D0020AD610020944A0020B3
:1029B000204A70B50123204C204D1380204E2370F7
:1029C00000222A6021781F292BD11E4B5C884422CB
:1029D000013C02FB04349321B4F93400A0F11E033E
:1029E00058425841FFF782FFB4F93A00A0F11F02A4
:1029F000504250419421FFF779FF00F031FD441E11
:102A0000604260419521FFF771FF28680E4B9842A4
:102A1000BDE870404FF0960194BF00200120FFF701
:102A200065BF304602F0A6FE20700A2026F021F88D
:102A3000C8E700BF804900209F0A0020081A002034
:102A40001C1A0020944A0020736A99642DE9F84FFB
:102A5000724EDFF8F8A1DFF8F891012333704624B5
:102A60005746BAF802306E4D4FF0440808FB03F3A6
:102A70001A1D52445344C9F800202A68C3F807209D
:102A80001E20002283F8340083F8360083F83A00D1
:102A900083F83C0083F8352083F8372083F838200A
:102AA00083F8392083F83B2083F83D2083F83E20CB
:102AB00083F83F20012000F0E3FC013CD1D14FF02E
:102AC000010BDA46317839293ED15648214626F0A5
:102AD000D4F9462C94BF002001207B21FFF706FF8C
:102AE000514B2868984294BF002001207D21FFF7B8
:102AF000FDFE15224D494E4827F017FEB0FA80F032
:102B00007E214009FFF7F2FE10224A494A4827F089
:102B10000CFEB0FA80F080214009FFF7E7FE0922A1
:102B20004649474827F001FEB0FA80F0822140096B
:102B3000FFF7DCFE00F094FCB0FA80F0832140093E
:102B4000FFF7D4FEBDE8F88F3E4801F0D7F81B2808
:102B5000307004D1BAF11B0F1CBF0134E4B2032C56
:102B600055D1BBF1000F52D0374826F086F97B884B
:102B700008FB03F31A1D3A443B444FF0000B4FF09F
:102B80001E0AC9F800202A68C3F8072083F834A079
:102B900083F835B083F836A083F837B083F838B0BF
:102BA00083F839B083F83AA083F83BB083F83CA0AF
:102BB00083F83DB083F83EB083F83FB0012000F0C9
:102BC0005FFC7B8808FB03F3191D39443B44C9F8BB
:102BD00000102968C3F8071083F834A083F835B0D3
:102BE00083F836A083F837B083F838B083F839B06B
:102BF00083F83AA083F83BB083F83CA083F83DB05B
:102C000083F83EB083F83FB0012000F039FC0A2081
:102C100096F800A025F02DFF54E700BF9D0A002084
:102C2000081A00201EFA0200736A996437FA02003B
:102C3000CA5D00204CFA0200B65D00205CFA02007A
:102C4000A30A00201C1A002006FA0200944A002061
:102C50000C2D002038B500F015FB00F0F9FB00F05A
:102C600029F90E4D044602F02FFD0D490D4827F0BD
:102C7000C3FC012207212868FFF7FEFD2868002217
:102C80000821FFF7F9FD1CB1074826F0F6F8FEE72A
:102C9000BDE83840054906481DF078BD181A0020E7
:102CA00065FA0200AC4900207CFA020028020020EC
:102CB00089FA020043681B685A0770B50569044623
:102CC0000AD41449144840F2BB4226F0D6F8114801
:102CD00040F2BB4126F048FC63682D681B685B0727
:102CE00005F004050AD40B490B4840F2914226F046
:102CF000C4F8084840F2914126F036FC35B9A36883
:102D0000DB6820460421BDE870401847A3681B69B2
:102D1000F7E700BF84F90200AEF90200054B10B4DA
:102D20000246186883681C684FF4FF11A44601230B
:102D300010BC60470C1A002037B5214B214D186894
:102D4000FFF7B8FF0021212025F0E2FE0DF106007B
:102D5000FFF7E4FF9DF8061028688031490325F04D
:102D6000BCFE9DF80610286880314903164A41F2DE
:102D70009C2325F093FE0446F0B99DF80630782B8D
:102D800018D80DF10700FFF7C9FF28684FF4FF11AD
:102D900025F0A3FE044668B99DF807302868013382
:102DA0008DF8073001230DF107024FF4FF1125F0D4
:102DB00075FE044600F04CFB204603B030BD00BF5A
:102DC000181A00200C1A0020944A0020194B37B51D
:102DD0001868194DFFF76EFF00210446212025F0E9
:102DE00097FE0DF10600FFF799FF9DF80610803160
:102DF00004434903286825F070FE04430DF10700E1
:102E0000FFF78CFF98B928684FF4FF1125F065FE95
:102E100068B99DF8073013B1013B8DF80730286879
:102E200001230DF107024FF4FF1125F037FE204377
:102E300003B030BD181A00200C1A002037B5194B0A
:102E40001868FFF737FF0021212025F061FE0DF102
:102E50000700FFF763FF9DF8071004460139124889
:102E600026F00BF89DF80730CBB100F0F1FA9DF891
:102E700007100E4B0139C9B28DF807101868836826
:102E80000B4A1D68803141F29C234903A84705463F
:102E9000FFF79CFF28430443204603B030BD00F0F9
:102EA000D7FAF9E7181A0020BDFA02000C1A002020
:102EB000944A002073B52548254D22F0FDF828607E
:102EC00083680DF107021C684FF4FE110123A0472F
:102ED0009DF80730722B04461BD028684FF4FE1172
:102EE00025F0FBFD722306468DF8073028684FF465
:102EF000FF1125F0F2FD30430443286801230DF152
:102F000007024FF4FE1125F0C9FD0443114825F0D6
:102F1000B4FF0DF10700FFF701FF9DF80730FF2B0D
:102F200044EA00040ED1002328688DF807300123FD
:102F30000DF107024FF4FF1125F0B0FD04430648E0
:102F400025F09BFF204602B070BD00BFD5FA0200FD
:102F50000C1A0020E1FA020005FB020010B5094C32
:102F60000021212025F0D4FD20684FF4FD1125F02B
:102F7000B4FD2068044ABDE81040B4234FF4FD11AD
:102F800025F08CBD0C1A0020AD61002070B50378CF
:102F9000032B04460D4616460AD00949094840F25B
:102FA000011225F06AFF064840F2011126F0DCFA12
:102FB00063686C61324629462046BDE87040184778
:102FC0001BFB0200AEF902000323F7B587680B7004
:102FD000CB8BC86013F0030305460C4616462BD175
:102FE00023492448822225F048FF8221204826F0E8
:102FF000BBFAE38B13F0180327D11D491D48872224
:1030000025F03BFF87211A4826F0AEFAE38B13F038
:10301000600323D1164917488C2225F02EFF8C21FE
:10302000134826F0A1FA00967E6803230122214668
:103030002846B04703B0F0BD032BDAD10C490D4848
:10304000832225F01AFF8321D0E7182BDED108490F
:103050000848882225F011FF8821D4E7602BE2D1AF
:10306000034904488D2225F008FF8D21D8E700BFD1
:103070001BFB0200AEF902002DE9F0410024C0B0B4
:1030800005460F461C22214611A8109427F068FB24
:1030900010AEB046384627F0DAFAA04249D80024EC
:1030A0001C22214619A8189427F05AFB1C222146FD
:1030B00021A8209427F054FB1822214628A827F0A5
:1030C0004FFB1022ADF8BC20354A364B12682A93CC
:1030D000ADF8BE20202320AACDE90C23324A2E933E
:1030E0001068516818AECDE90483CDE90663CDE9D7
:1030F0000A6301AB03C390681860012228A928461F
:10310000CDE90844CDE90E44FFF75EFF70B901AA8E
:1031100004A928A8FFF73AFF0446B8B1234825F0D0
:10312000ACFEAB6828A99B682846984740B0BDE82C
:10313000F081224602233946684625F0EBFC6846BA
:1031400025F0F9FC023406F8010BA3E7AB6828A9C7
:103150009B6828469847224628A92846FFF734FF4F
:103160000028E3D101AA0AA928A8FFF70FFF044607
:1031700008B10F48D3E701460422384627F0F0FA99
:10318000DFF8308016F8012B414630A806F08EFBA0
:10319000013430A9384627F0ABFA202CF2D1C0E731
:1031A000141A0020AD0A00207AFB020046FB020040
:1031B00060FB0200E40503002DE9F04704460D46DC
:1031C00017464368D0F808901B68D0F81080012695
:1031D0008E401E420AD10C490C4840F2FD2225F0D7
:1031E0004CFE094840F2FD2126F0BEF9D8F8003027
:1031F00023EA0606C8F80060D9F800303A462946A6
:103200002046BDE8F047184784F90200AEF90200F5
:1032100043682DE9F0411B68076901258D401D4277
:10322000044616460AD11549154840F2BB4225F01E
:1032300024FE124840F2BB4126F096F93B681D423D
:1032400063681B6818BF86F001061D420AD10B494E
:103250000B4840F2914225F010FE084840F291419F
:1032600026F082F936B1A368DB6829462046BDE81E
:10327000F0411847A3681B69F7E700BF84F9020013
:10328000AEF9020070B56E486E4C21F015FF4FF498
:10329000007207212060FFF78FFF20684FF4007253
:1032A0000821FFF789FF20684FF440721021FFF7D3
:1032B00083FF20684FF440720221FFF77DFF2068F2
:1032C0004FF400721921FFF777FF20684FF4007266
:1032D0001A21FFF771FF20684FF400720A21FFF7EF
:1032E0006BFF20684FF400720D21FFF765FF206827
:1032F0004FF400721521FFF75FFF20684FF4007252
:103300001421FFF759FF20684FF400721321FFF7D3
:1033100053FF20684FF400721221FFF74DFF206821
:103320004FF400721121FFF747FF20684FF400723D
:103330001621FFF741FF20684FF400721821FFF7B4
:103340003BFF20684FF400721721FFF735FF20681C
:103350004FF480720C21FFF72FFF20684FF40072AA
:103360000621FFF729FF206800220621FFF750FF02
:1033700020684FF480720421FFF71EFF20684FF48D
:1033800088720521FFF718FF2568D5E901361B680B
:103390009B060AD42C492D4840F29D2225F06DFD54
:1033A000294840F29D2126F0DFF84FF48023B669CA
:1033B0004FF4A03205212846B0472068002207219B
:1033C000FFF726FF206800220821FFF721FF206871
:1033D00000220D21FFF71CFF206800221321FFF7B8
:1033E00017FF206800221521FFF712FF2068002236
:1033F0001421FFF70DFF206800221121FFF708FFBD
:10340000206800221221FFF703FF20680022182104
:10341000FFF7FEFE206800221721FFF7F9FE206863
:1034200001221621FFF7F4FE206800221021FFF789
:10343000EFFE20680122BDE870400221FFF7E8BEE0
:1034400087FB0200181A002084F90200AEF902007E
:10345000024841F29C22002127F082B9944A0020C0
:10346000064B58881B88984202D9C01AC0B27047D0
:1034700002D2C01A4730F9E700207047944A002072
:103480002DE9F047674CB4F80290442707FB09F593
:1034900004EB050A9AF94430002B6FDDB4F8008084
:1034A000C1451BD207FB08470026B8F1450F51D98B
:1034B0004FF044085B4F254408FB0948AC421CD040
:1034C00095F94430002B06DD432208F10501781DF3
:1034D00027F03BF901264437443DEFE709F1FF307F
:1034E00007FB004090F94430002B47DD43220AF1EE
:1034F0000501053027F029F90126442505FB09437C
:10350000DB7A002B59D02788B94570D205FB0748D4
:10351000452F60886DD900274FF044086088BBB202
:1035200098424AD9BDB208FB05F505F10B0108FB2D
:10353000004021440B3027F09AF848B9618860199F
:1035400008FB014143220531053027F0FEF8012632
:103550000137E3E705F14403DB1B13F91430002BBB
:1035600006DD43220AF10501781D27F0EEF8012659
:1035700008F101081FFA88F8443796E70026BCE7EF
:10358000C11B05FB014105FB00400B310B3027F04F
:103590006EF858B96188C81B05FB004005FB014166
:1035A00043220531053027F0D0F801260137BFB29C
:1035B00060882388C31A9F42E2DD8EBBFFF750FF6D
:1035C000452801D1FFF7B8FB638801339BB2452B37
:1035D00089BF00236380A370E3706088442202FBEC
:1035E00000400021BDE8F047043027F0B9B80127BA
:1035F000DEE705FB004008F10B010B3027F037F840
:1036000048B9618805FB01414322053108F10500F5
:1036100027F09BF801260137BFB208F1440877E78D
:10362000BDE8F087944A00202DE9F04FADF2BC4D83
:1036300004462191A8490A884B88934200F0D4811E
:1036400044235343CE180B33727F0F92B27F1092F4
:10365000F27F119296F82020129296F82120139270
:1036600096F82220149296F82320179296F8242098
:10367000189296F82620199296F827201A92194443
:1036800024A896F825B0D6F8075026F0B5FF96F98D
:1036900004301593B6F928300D93D6F82A301B93D1
:1036A000B6F92E301C93336B1D93B6F93420239258
:1036B000D6F836301E93B6F93A301F93F36B209349
:1036C00096F84330B6F84080169396F9443022932A
:1036D000824996F8473021980E9396F8429096F9D1
:1036E00046A096F9457026F0C2FFDDE92232002897
:1036F00040F08D80BBF1000F28D01A9B002B40F0CA
:103700007681159B0693149B0593139B0493129B40
:103710000393119B0293109B019371490F9B00939C
:103720002A4624AB204606F0C1F8DDE917236D498F
:103730002EA806F0BBF82EA9204626F0D9FF199B2B
:1037400069495A462EA806F0B1F80FE00D99C9B1A3
:103750001D9B02931C9B01931B9B00930B4663498B
:1037600084F800B02A462EA806F0A0F82EA920461C
:1037700026F0BEFF204626F06AFF80B20DF2BC4D57
:10378000BDE8F08F5AB10D9B2370209B02931F9BC5
:1037900001931E9B0093564913462A46E3E7B8F16E
:1037A000000F04D02270534943462A46CAE7B9F1B4
:1037B000000F05D0504984F800804B462A46C1E7E7
:1037C000169A2AB14D4984F8009024AB2A46B9E7ED
:1037D0000E9A2AB1169B2370494913462A46B1E72F
:1037E0002FB10023237047493B462A46AAE7002B06
:1037F00004DD0022227044492A46A3E7BAF1000FF3
:10380000B8DD00232370414953462A469AE74049D0
:103810002198CDE9222326F02AFF06460028A9D1C7
:10382000DDE92223BBF1000F3FD029AF0146122270
:10383000384626F095FF0DF1900AD046404626F016
:1038400006FF864224D3159B32495B42DBB20B93C1
:103850001A9B0A93199BCDE908B3189B0793179BF2
:103860000693149B0593139B0493129B0393119B44
:103870000293109B01930F9B00932A4629AB20468D
:1038800006F014F8244B21461868FFF7F5FB71E7A2
:10389000D14619F8013B3A2B04D001225146384653
:1038A00026F02FFF0136CA46C8E70D99002937DDFB
:1038B0001D9B03931C9B029300911B9B1749019333
:1038C00084F800B001232A462EA805F0EFFF2EA9A8
:1038D000204626F00DFFD5E7944A00208EFB02001B
:1038E00093FB0200D1FB0200DFFB0200EBFB0200B6
:1038F0000DFC020037FC020049FC02005FFC0200E4
:103900007FFC02009CFC0200B4FC0200CBFC020025
:10391000E5FC0200EDFC0200101A002027FD020069
:10392000002A0CDD209B03931F9B02931E9B3949A9
:1039300084F800B0CDE900235B462A46C4E7B8F11D
:10394000000F08D0344984F800B043462A462EA818
:1039500005F0ACFFBBE7B9F1000F05D02F4984F8A3
:1039600000804B462A46F2E7169AF2B1014612222F
:1039700029A826F0F5FE24AFB946484626F067FE92
:10398000864205D300232370254929AB2A46DEE76A
:10399000B84618F8013B3A2B04D00122394629A831
:1039A00026F0AFFE01364746E7E70E9A2AB100231C
:1039B00023701C4913462A46C9E737B100232370F8
:1039C0007B4219495BB22A46C1E7002B03DD174948
:1039D00027702A46BBE7BAF1000F7FF753AF1449AF
:1039E000277053462A46B2E700202070C6E6159B92
:1039F0000693149B0593139B0493129B0393119BB3
:103A00000293109B01930F9B00930A4924AB2A4613
:103A100088E600BF43FD02005FFD02006BFD02006F
:103A200077FD020081FD02008DFD020099FD02007C
:103A3000A5FD0200B1FD0200BFF34F8F0549064B03
:103A4000CA6802F4E0621343CB60BFF34F8F00BF3C
:103A5000FDE700BF00ED00E00400FA0543682DE932
:103A6000F0411B68076901258D401D42044616463A
:103A70000AD11549154840F2BB4225F0FEF912481B
:103A800040F2BB4125F070FD3B681D4263681B6836
:103A900018BF86F001061D420AD10B490B4840F2BF
:103AA000914225F0EAF9084840F2914125F05CFD89
:103AB00036B1A368DB6829462046BDE8F0411847C7
:103AC000A3681B69F7E700BF84F90200AEF90200A2
:103AD00084B030B503AC84E80F00DDE9061211F0C4
:103AE00003002CD1194B022AC8BF1846184B174C9B
:103AF000013A32BB039B174C059A1C444FF4616397
:103B000003FB0244049A3C2303FB0244089A0F4B34
:103B1000013A03FB02426FF4F6640D19002D1C46B6
:103B200040F26D13B8BFA1F2AE754B4303EBA50392
:103B300004FB0323BDE83040184404B07047002064
:103B4000D4E7013AD55C04FB0500D2E780510100BF
:103B50004D0C002000B101892DE9F0415F4DDFF8E7
:103B600098815F4F04460026204626F070FD86426D
:103B700001D3BDE8F081072E3BD8DFE806F004183A
:103B80003C4F697687962378303B032B31D8DFE8AA
:103B900003F00205080B534B002229E0514B012290
:103BA00026E0504B022223E04E4B032220E06378B4
:103BB000303B082B1DD8DFE803F00507090B0D107B
:103BC00013161900484BE7E7474BE8E7464BE9E790
:103BD000454BEAE7444B04220AE0434B052207E049
:103BE000414B062204E0404B072201E03E4B0822F5
:103BF0001A700136B8E7A378303B042BF9D8DFE818
:103C000003F0030507090B00384BC5E7374BC6E740
:103C1000364BC7E7354BC8E7344BDCE7E378303B3E
:103C2000072BE6D8DFE803F00406080A0C0E101292
:103C30002F4BB1E72E4BB2E72D4BB3E72C4BB4E73C
:103C40002B4BC8E72A4BC9E7294BCAE7284BCBE7E0
:103C50002379312B05D0322B05D0302BC9D1254B00
:103C60009AE7244B9BE7234B9CE76379303B032B7C
:103C7000BFD8DFE803F00205070900233B70B8E76F
:103C80000123FBE70223F9E70323F7E7A379302BAE
:103C900003D0312BADD1002304E002F05DFB0028FE
:103CA000A7D1012388F80030A3E7E379303B062B46
:103CB0009FD8DFE803F00407090B0D0F1100002364
:103CC0002B7096E70123FBE70223F9E70323F7E7CD
:103CD0000423F5E70523F3E70623F1E79C0A002018
:103CE000AA4900202F4A0020A20A0020A10A002091
:103CF0009E0A0020AB4900209E6100202DE9F04182
:103D00000D469449944E4B88442202FB031304331E
:103D1000A8B00446336024F099FF4D2D4FD8DFE85A
:103D200015F04F005300680073009400AB00BD0015
:103D3000DB000401390177019E01DC0130024402FD
:103D40005402DF02F302590366037A038E03A103D0
:103D5000B403C903EC0347048B04B104DD0422055A
:103D600039054E004E004E004E006205750588056F
:103D70009D05AF050506170629063B064D065F069D
:103D80008E06A006B206E106F60612076F07650961
:103D90007D0990094F004F004F00A009B509CA09DD
:103DA000DF09F409090A1E0A330A5E0A730AC70A00
:103DB000F50A0C0B210B4A0B6B0B0C0C2F0C3B2543
:103DC000284628B0BDE8F08158B14FF4FA734FF09F
:103DD000010EC0E900E3002380F8303080F8703035
:103DE00003725E4B012218680221FFF737FE02259D
:103DF000E6E70668032EE3D1594B4FF4FA7200212F
:103E000024F0C7FE3546DBE70368022B0FD1554B84
:103E1000197800297BD1524B4FF4FA7224F0B9FE85
:103E2000514B5249186824F020FF0725C8E7032B9F
:103E3000C6D164230127C0E90073002380F8303025
:103E400080F8703003720425BAE70368023B012B47
:103E5000B6D8424B012218680A21FFF7FFFD012660
:103E600040F2E243C4E90063002384F8303084F870
:103E7000703023720525A3E70368032BA0D1374BCD
:103E8000002218680A21FFF7E9FD394B41F6583244
:103E90000121204624F07DFE062591E70368032BCF
:103EA00001D101258CE7022B8AD1324A00231380ED
:103EB000314A13702B4B1B780BB1082580E7284B38
:103EC0004FF47A72012124F064FE274B27491868C9
:103ED00024F0CBFE072573E70368022B40F029830B
:103EE000264A2749274D703026F0DCFB24492860FC
:103EF000224A002026F0D6FB0146286038B122482D
:103F000026F07AFB204A2149164805F0CFFC4FF4F1
:103F1000FA734FF0010CC4E900C3002384F8303079
:103F200084F87030237208254AE70368032BC4D154
:103F30004FF47A720A4B002124F02BFE0A4B1449ED
:103F4000186824F092FE0B4A138801331380092568
:103F500036E700BF944A00200C2D0020181A0020DC
:103F6000F0FD0200305D00204C2D0020F3FD02002A
:103F7000FBFD020084490020E35D0020242D002089
:103F80004F030300482D0020B65D002003FE020011
:103F900017FE02000368022B25D1AF4AAF497030EB
:103FA00026F080FBAC4AAE49002026F07BFB60B1D6
:103FB000AC4A33681268C3F8032026F061FA33680C
:103FC00083F840000120FFF75BFAA74B4FF4FA6239
:103FD0000021204624F0DDFDA44BA549186824F0FB
:103FE00044FE0A25ECE6032B7FF4EAAEA14A1288D0
:103FF000052A01F2D18201254FF4FA63C0E900538A
:10400000002380F8303080F8703003720825D7E63E
:1040100000F170069849304626F0CEFA80B14FF490
:10402000FA72964B0021204624F0B3FD8F4B944941
:10403000186824F01AFE8F4B00221A800B25BFE669
:104040002368032B06D08F49304626F0B5FA0028A6
:104050003FF4B6AE8C4B00221A703625B0E60368EA
:10406000022B24D1894A7D49703026F01BFB8849F8
:10407000864A002026F016FB014638B185480378B1
:1040800023B926F0B9FA844B01221A707B4B4FF406
:10409000FA620021204624F07CFD804B80490022FA
:1040A0001A70724B186824F0E0FD0C2588E6032B8B
:1040B00006D17C4A13680133022B08DC1360F0E65A
:1040C0007049703026F078FA0028F2D178E60023A3
:1040D00013606D4A3625137072E600F1700672495E
:1040E000304626F069FA68B1644B4FF47A720021C9
:1040F000204624F04EFD5D4B6C49186824F0B5FD58
:104100000E255DE630466A4926F056FA0646002836
:10411000EAD12368023B012B3FF652AE5F4FDFF836
:104120004C813B780A2B1AD9544B387042F21072EA
:104130000146204624F02DFD5E49D8F8000024F009
:1041400094FD5D4A138801339BB2012B8DBF4E4B0A
:1041500013800D25168084BF1E70362530E64FF47F
:10416000FA632060636084F8300084F87000207285
:104170004B49D8F8000024F078FD3B7801333B70C0
:104180001EE60368022B40F0D48142F210723B4BD2
:10419000002124F0FEFC354B4849186824F065FDE9
:1041A000344B00221A800C250AE60368022B40F0EB
:1041B000C081324B424A002124F0EBFC2B4B414999
:1041C000186824F052FD0F25FAE53F49703026F0BB
:1041D000F3F990B13D4A254D1378022B23D80133D2
:1041E00013700021254B4FF47A62204624F0D1FC55
:1041F00028682E4924F039FD0E252368022B1FD193
:10420000334B1978002941F0CA81324B42F22832EF
:10421000204624F0BEFC154B2F491868013524F0C8
:1042200024FDEDB2CCE5154B4FF47A620021204617
:1042300024F0AFFC2868294924F017FD2425DCE789
:10424000032B7FF4BDAD0D4B42F2107200212046CE
:1042500024F09FFC2425B3E5282D0020E90203006B
:104260004F000300081A002028FE02004C2D0020F9
:104270001EFE02008449002027FE0200F0FD02001D
:1042800034FE02003DFE0200825D00202C2D002045
:104290004F030300CA5D00202D4A0020835D0020EB
:1042A00048FE0200102D002052FE02005EFE0200B9
:1042B00061FE02006DFE0200824900209AFE0200AB
:1042C000905F0100B3FE020042FE0200E35D0020A9
:1042D0002C4A0020CDFE0200D3FE0200C0FE0200E8
:1042E0000368022B0CD1954B4FF47A72002124F015
:1042F00050FC934B9349186824F0B7FC11255FE5F7
:10430000032B08BF12255BE50368022B40F01181E7
:104310008D4A8E49703026F0C5F98B4A8C490020B1
:1043200026F0C0F9002832D026F0AAF8894D864A36
:10433000874900F5FA60E860002026F0B3F930B351
:1043400026F09EF8804A28618349002026F0AAF9C9
:10435000E8B126F095F87C4A68618049002026F093
:10436000A1F9A0B126F08CF8774AA8607B4900201B
:1043700026F098F958B126F083F8734A68607849B6
:10438000002026F08FF910B126F07AF82860754DDC
:1043900075492868754A884213880DD9042B01F2A3
:1043A0000181013313800021644B4FF4FA622046EF
:1043B00024F0EFFB0B2503E5042B01F2F680654B9F
:1043C000D3E904018DE803000FCBFFF781FB2860E0
:1043D0001225F5E4594B41F28832002124F0D9FB33
:1043E000574B6349186824F040FC1325E8E4036840
:1043F000022B40F09E804EF66022504B002124F0AC
:10440000C8FB4F4B5B49186824F02FFC574B002228
:104410001A801425D4E40368022B40F08A804EF6FB
:104420006022464B002124F0B4FB454B52491868EA
:1044300024F01BFC4D4B00221A801525C0E40368B4
:10444000022B76D14EF660223C4B002124F0A1FBDA
:104450003B4B4A49186824F008FC444B00221A8060
:104460001625ADE40368022B63D14EF66022334B70
:10447000002124F08EFB324B4149186824F0F5FBF3
:104480003A4B00221A8017259AE40368022B7FF426
:10449000D7AE2B4C3B4B4CF25032002124F079FB31
:1044A0003949206824F0FCFB3849206824F0DDFB02
:1044B000182585E400F170063549304626F07CF871
:1044C00068B1344B4CF250320021204624F061FB9D
:1044D0001B4B3149186824F0C8FB192570E4236888
:1044E000032BEED02D49304626F066F80028E8D19F
:1044F0002368022B08BF192562E40368022B10D140
:104500000F4C274B4CF25032002124F042FB25493E
:10451000206824F0C5FB2449206824F0A6FB1A2556
:104520004EE42249703026F047F800287FF492AD1F
:104530002368032B7FF444ACB3E400BFF0FD02001A
:104540004C2D0020F0FE0200602D0020D00403005E
:10455000F9FE0200302D00204F000300FBFE020098
:10456000FDFE0200081A0020005ED0B2844900203F
:10457000FFFE020015FF020031FF020053FF0200A0
:104580006DFF0200680003008EFF0200AC490020AE
:1045900042FE02009CFF0200AAFF0200CEFF0200C2
:1045A00075000300DDFF0200305D0020EBFF02001C
:1045B0000368022BBCD10021BA484FF4C87226F020
:1045C000CFF8B949B748FFF72FF818B9B749B54838
:1045D00026F012F8B64E337863B1B64DB649722262
:1045E000284605F063F9AF48294626F081F80023F4
:1045F00033702B70B14E337863B1B14DB14AB249CB
:10460000284605F053F9A748294626F071F80023FB
:1046100033702B70AD4E337863B1A94DAC4AAD49C0
:10462000284605F043F99F48294626F061F8002303
:1046300033702B701B257BE70368022B11D1A64C2E
:10464000A64B42F21072002124F0A3FAA44920687C
:1046500024F026FBA349206824F007FB1C25FFF764
:10466000AFBB032B7FF4ACAB9F4B42F21072002127
:1046700024F08FFA984B9D49186824F0F6FA242507
:10468000FFF79EBB0368022B16D1864C924D984BC8
:1046900042F21072012124F07CFA2868214624F0AD
:1046A000FFFA1A23286823702146002363701D2512
:1046B00024F0F6FAFFF784BB032B7FF481AB8D4B1C
:1046C00042F210720021204624F063FA824B87499F
:1046D000186824F0CAFA2425FFF772BB864B002223
:1046E0001A800368022B15D14A880B889A4202D09F
:1046F000824824F041FA824B6A4801221A70002154
:104700004FF4C87226F02CF867496648FEF78CFF14
:1047100098B11B252368032B7FF452AB754B49F6E8
:1047200040420021204624F034FA6B4B6F49186850
:1047300024F09BFA2425FFF743BBFEF77FFB5A4981
:104740005848FEF771FF01460028E2D1694B4FF44B
:104750007A72204624F01DFA5F4B6A49186824F0EB
:1047600084FA2725D6E70368023B012B3FF628ABE6
:10477000594C5A4B42F21072002124F00AFA58495F
:10478000206824F08DFA5749206824F06EFA1F251E
:10479000FFF716BB0368022B8ED15B4B414C42F2F4
:1047A0001072012124F0F5F93E484FF4C87200213F
:1047B00025F0D6FF554B1B789BB15549464D2046F9
:1047C00025F01AFF2868374924F06AFA1A23286866
:1047D0002370344900236370242524F061FAFFF725
:1047E000EFBA4C49EAE70368023B012B3FF6E8AA1F
:1047F000404B4FF47A62002124F0CBF9364B464906
:10480000186824F032FA3625FFF7DABA0368023B5B
:10481000012B3FF6D5AA414B42F21072002124F041
:10482000B8F92D4B3E49186824F01FFA2625FFF7EA
:10483000C7BA0368022B0CD100234FF0FF32C0E946
:10484000003280F8303080F8703003723B25FFF77B
:10485000B7BA032B08BF3625FFF7B2BA0368022B9D
:104860007FF467AE234B46F2A812002124F091F9A1
:10487000194B2C49186824F0F8F92825FFF7A0BA3D
:104880000368022B7FF455AE1A4B46F2A8120021A2
:1048900024F07FF9104B2449186824F0E6F9292503
:1048A000FFF78EBAE45D00208EFB0200F9FF0200E4
:1048B000A00A0020745F0020000003002D4A0020A1
:1048C000845D0020CA5D00200E0003002E4A0020F7
:1048D00080610020240003004C2D00203C000300D8
:1048E0003E000300305D002051000300C0FE0200C6
:1048F0005F000300F0FD020084490020944A00207C
:10490000825D00205EFE02006C000300885F0020D4
:104910007B0003008700030096000300A300030050
:10492000B0000300B9000300D30003000368022BAA
:104930007FF4FFAD934B46F2A812002124F029F931
:10494000914B9249186824F090F92A25FFF738BA5C
:104950000368022B7FF4EDAD8A4B4EF660220021F6
:1049600024F017F9884B8A49186824F07EF92B2522
:10497000FFF726BA0368022B7FF4DBAD814B4EF6BE
:104980006022002124F005F97F4B8249186824F049
:104990006CF92C25FFF714BA0368022B7FF4C9AD1C
:1049A000784B4EF66022002124F0F3F8764B7A49DA
:1049B000186824F05AF92D25FFF702BA0368022B74
:1049C0007FF4B7AD6F4B4EF66022002124F0E1F882
:1049D0006D4B7249186824F048F92E25FFF7F0B99D
:1049E0000368022B7FF45DAA6D4C6E4B41F2883256
:1049F000002124F0CEF823784BB16B496B4825F0A9
:104A000077FE6B49694825F073FE002323706749E0
:104A1000684824F032FA6449674824F02EFA634863
:104A200025F015FE65490246654804F03FFF564BE8
:104A30006349186824F019F92F25FFF7C1B90368F5
:104A4000022B7FF476AD4F4B4EF66022002124F00E
:104A5000A0F84D4B5549186824F007F93025FFF7A9
:104A6000AFB90368022B7FF464AD564B48F6B80229
:104A7000012124F08EF8444B5349186824F0F5F8CE
:104A80003125FFF79DB90368022B7FF452AD00F189
:104A9000700200200146134640F2DC5512F8016B0B
:104AA0002C2E00F1010019D1B9B1184425F0E8FC11
:104AB000464B01461860464824F0DFF9454B4EF658
:104AC00060220021204624F064F82F4B42491868E8
:104AD00024F0CBF83225FFF773B90121A842DDD1CC
:104AE0003E48E3E70368022B7FF423AD4EF66022D5
:104AF000244B002124F04DF8234B3949186824F049
:104B0000B4F8384B00221A603325FFF759B903680F
:104B1000022B7FF40EAD3449703025F04DFD014677
:104B20000446324824F0A9F9204625F0A9FC304B70
:104B3000304A1870002313702A4A13602E4A342515
:104B40001370FFF73DB90368022B7FF4F2AC0D4BF5
:104B500041F27072002124F01CF84FF4C872002159
:104B6000174825F0FDFD224B24491A78144804F01B
:104B70009DFE054B1249186824F077F83525FFF79C
:104B80001FB900BFF0FD02004C2D0020EF00030014
:104B90000E01030028010300440103006601030025
:104BA0005A0C002080010300B65D0020210B00207C
:104BB00088010300A1010300B7010300CE01030037
:104BC000E45D0020E1010300E6010300182D002050
:104BD000F50103000B0203001D020300442E030035
:104BE00039020300202D0020E90203004E020300D9
:104BF0008B5F00208C5F0020885F00205D02030037
:104C00000368022B40F0E181B54D2B6878332B60AF
:104C1000002100F170031E46084640F2DC5213F8F2
:104C2000017B0D2F01F101015ED100285BD0AD4861
:104C3000314425F05DFDAC4AAC49AA4825F032FD6F
:104C40000146A84825F0D8FCA94B1A682B689A425F
:104C500000F2AE84A44AA749A24825F023FDA24A47
:104C6000A549002025F01EFD01469E4825F0C4FC04
:104C7000A1499C4825F03CFD9A49A04824F0FDF844
:104C8000984825F0E4FC0AAB014600939C4A9548FD
:104C9000132303F017FA051E38DA9A4E9A48338820
:104CA00029460133338024F0E8F83388032B1ED8DB
:104CB000964B41F270720021204623F06AFF4FF4B8
:104CC000C8720021924825F04BFD924B92491A7808
:104CD0008F4804F0EBFD914B8D49186823F0C5FF18
:104CE0002725FFF76DB80120914298D1A3E78C4B9F
:104CF00001221A7000236422C4E9003284F83030A3
:104D000084F8703023721E25FFF75AB8E80706D5DD
:104D10000A99844825F070FC8248FEF71DFFA90718
:104D200008D581490B9A02A804F0C0FD7F4802A96A
:104D300025F062FC6A0708D57B490C9A02A804F0AA
:104D4000B5FD7B4802A925F057FC2B0704D50D982B
:104D500025F096FB774B1860EF060DD50E9825F0E1
:104D60008FFB754B754918600E9825F025FC0130B6
:104D700025F086FB724B1860AE060DD50F9825F016
:104D80007FFB704B6D4918600F9825F015FC0130C2
:104D900025F076FB6C4B18606C0605D5109B6B4AB2
:104DA000003B18BF0123137028060DD5119825F07C
:104DB00067FB674B61491860119825F0FDFB0130D6
:104DC00025F05EFB634B1860E90544BF624B129A05
:104DD000624C48BF1A6015F40071204670D0012360
:104DE00000F8013B139925F042FC60B11399601C57
:104DF00025F002FC002304F1B502194601330A2B09
:104E000002F8011BFAD115F480615FD002231499D6
:104E10005348237025F0F0FB15F400615BD00323A9
:104E200015995048237025F0E7FB15F4805100F0E8
:104E3000A980042316994C48237025F0DDFB15F456
:104E4000005100F0A480052317994848237025F0ED
:104E5000D3FB15F4804100F09F8006231899444845
:104E6000237025F0C9FB15F4004100F09A80072358
:104E700019994048237025F0BFFB15F4803100F0EC
:104E8000958008231A993C48237025F0B5FB15F44A
:104E9000003100F0908009231B993848237025F0D9
:104EA000ABFB15F4802100F08B800A231C99344859
:104EB000237025F0A1FBFEF751F81E25FEF780BFF9
:104EC00000F8011B122225F04BFC9CE7122224481B
:104ED00025F046FCA0E71222224825F041FCA4E779
:104EE000202D00208C5F0020602D00201C06030078
:104EF000182D0020FBFE02003A0003006E020300A2
:104F0000D8E50200844900207C020300F0FD020085
:104F1000E45D00208B5F0020910203004C2D0020F7
:104F2000885F0020A30A00209F020300624A00203D
:104F3000304A002010020020200200204F00030011
:104F40001C02002018020020140200202C4A00201D
:104F5000041A002024020020001A0020AC61002066
:104F6000BF610020D1610020E3610020F5610020D5
:104F700007620020196200202B6200203D620020A1
:104F80004F6200201222AB4825F0EAFB57E71222BD
:104F9000A94825F0E5FB5CE71222A84825F0E0FBD4
:104FA00061E71222A64825F0DBFB66E71222A5483E
:104FB00025F0D6FB6BE71222A34825F0D1FB70E762
:104FC0001222A24825F0CCFB75E7032B7EF4F8AE45
:104FD0009F4B4FF49672002123F0DBFD9D4B9E49C1
:104FE000186823F042FE2725FEF7EABE9B4B0122FC
:104FF00018680A21FEF732FD14B93725FEF7E0BE26
:105000004FF47A730122C4E90023002384F830307E
:1050100084F8703023723725FEF7D2BE0368032B65
:10502000EBD18E4B002218680A21FEF717FD8C4B3E
:1050300042F210720121204623F0ABFD3825FEF725
:10504000BFBE0368022B07D1864B1A78002A40F0B6
:10505000E9823A25FEF7B4BE032B08BF3625FEF7DA
:10506000AFBE0368022B7FF464AA46F2A812784B05
:10507000002123F08EFD774B7B49186823F0F5FD66
:105080007A4B00221A803D25FEF79ABE0368022B58
:105090007FF44FAA46F2A8126D4B002123F079FD50
:1050A0006C4B7349186823F0E0FD704B00221A80A6
:1050B0003E25FEF785BE0368022B7FF43AAA46F22E
:1050C000A812634B002123F064FD624B6949186804
:1050D00023F0CBFD654B00221A803F25FEF770BE02
:1050E0000368022B7FF425AA4EF66022584B00215C
:1050F00023F04FFD574B6049186823F0B6FD5B4B1A
:1051000000221A804025FEF75BBE0368022B7FF465
:1051100010AA4EF660224E4B002123F03AFD4D4B73
:105120005649186823F0A1FD504B00221A804125F2
:10513000FEF746BE0368022B7FF4FBA94EF6602201
:10514000434B002123F025FD424B4D49186823F0C5
:105150008CFD464B00221A804225FEF731BE0368C3
:10516000022B7FF4E6A94EF66022394B002123F092
:1051700010FD384B4349186823F077FD3B4B002264
:105180001A804325FEF71CBE0368022B7EF489AE0D
:105190003D4C3E4B41F28832002123F0FAFC23784B
:1051A0002BB13B493B4825F0A3FA00232370394932
:1051B000394823F062FE3649384823F05EFE354810
:1051C00025F045FA36490246364804F06FFB214B7C
:1051D0003449186823F049FD4425FEF7F1BD036802
:1051E000022B7FF4A6A94EF66022194B002123F072
:1051F000D0FC184B2749186823F037FD1B4B0022C1
:105200001A804525FEF7DCBD0368022B7FF491A9C7
:1052100047F23052244B002123F0BBFC0D4B2349B5
:10522000186823F022FD114B00221A804625FEF754
:10523000C7BD00BFE3610020F561002007620020C8
:10524000196200202B6200203D6200204F62002086
:10525000F0FD02004C2D00205EFE0200181A002016
:10526000A4020300825D0020B900030084490020ED
:10527000D3000300EF0003000E0103002801030028
:105280004401030066010300590C00208001030063
:10529000B65D0020BD0A0020A1010300B701030094
:1052A000CE010300E45D0020B6020300E601030026
:1052B0000368022B7FF43DA900F170020020014633
:1052C000134640F2DC5512F8016B2C2E00F1010060
:1052D00018D1B1B1184425F0D3F8B84B0146186085
:1052E000B74823F0CAFDB74BB74A0021204623F048
:1052F00050FCB64BB649186823F0B7FC4725FEF7BB
:105300005FBD0121A842DED1B248E4E70368022B69
:105310007FF40FA94EF66022AF4B002123F039FC39
:10532000AA4BAE49186823F0A0FCAD4A00231380B5
:10533000AC4A48251360FEF743BD0368022B7FF497
:10534000F8A8A949703025F037F901460446A74866
:1053500023F093FD204625F093F8A54B49251870BE
:10536000FEF72EBD0368022B7FF4E3A8A14B1E6855
:10537000B768FB687BB9BB684FF4703200213046D8
:105380009847FB68044693B95CB99B4804F0A6FAB9
:105390004A25FEF715BD00213046984704460028EF
:1053A000E9D02146954804F099FAFEF709BD01219C
:1053B00030469847E8E70368022B7FF4BAA8864B8B
:1053C00041F27072002123F0E4FB4FF4C872002117
:1053D0008B4825F0C5F9864B8A491A78884804F02D
:1053E00065FA7A4B8649186823F03FFC7C4B002213
:1053F0001A804B25FEF7E4BC0368022B7AD1784B68
:1054000004F1700600201880B046334640F2DC52AA
:1054100013F8011B202940F00A813044012725F0B0
:105420002FF8C5B2782D03D07748294623F025FD03
:10543000002440F2DC5316F8012B0D2A04F101047C
:1054400018D10137032F15D14444204625F0FFF829
:105450002B1D984212D06D4C6D4823780133237078
:1054600023F00BFD2378142B3ED96A4823F005FD69
:10547000FEF7E2FA9C42DED1564CE6E7204625F0E4
:10548000E6F8782301460AAA204623F093FC554CFF
:10549000584B1E6823686D084FEA5308B768FB68CD
:1054A000C3B92B460AAA7D6841463046A847FB6827
:1054B000B3B9424A2368116878338B42236016D20D
:1054C000642253435448B3FBF1F123F0D6FC4A2540
:1054D000FEF776BC0021304698470028E1D0E8E787
:1054E000012130469847E4E74C25FEF769BC4D257D
:1054F000FEF766BC032B7EF463AC394A1388013394
:105500009BB2052B138056D8334B4EF660220021F8
:1055100023F03FFB4FF4C8720021394825F020F9F1
:10552000334B38491A78364804F0C0F9274B3449D0
:10553000186823F09AFBFEF743BC0368022B7EF445
:10554000F8AF254B41F27072002123F022FB4FF49B
:10555000C87200212A4825F003F9224B244A1B680F
:1055600012782E49264804F0A1F9184B24491868EE
:1055700023F07BFB1A4B00221A804A25FEF720BC41
:105580000368022B7EF4D5AF002027F008F901460E
:10559000234823F072FC6BE71D46FEF711BC3C2547
:1055A000FEF70EBC3625FEF70BBC3625FEF708BC11
:1055B0003425FEF705BC0625FEF702BC142D00209D
:1055C000F50103000B020300A08601004C2D002012
:1055D000BA020300442E0300F0FD0200D6020300CD
:1055E000844900201C2D0020E90203004E02030024
:1055F0008A5F00200C1A002003030300EB02030063
:10560000E45D00205D0203001B030300895F0020AE
:105610002703030036030300520303006003030063
:105620007203030000221A703925FEF7C9BB01304E
:1056300090427FF4EDAE01480027F0E6442E0300CF
:1056400013B5044683685B6C33B1984720B918489A
:1056500023F013FC02B010BDA3685B6B63B9A368B1
:105660009B699BB9134B9DF807101B7A032B07D836
:10567000DFE803F012161A12204698470028EED1F0
:105680009DF807100C4823F0F8FBE3E701220DF129
:10569000070120469847E5E7084823F096FAEFE728
:1056A000074823F0F9F9EBE7064823F00BFBE7E79F
:1056B000DC030300B4260020E40303001C1A0020CE
:1056C00068200020C026002010B50A480A4C1FF0B0
:1056D000F3FC8268206022B1936C13B10749002269
:1056E0009847206883689B6A13B1BDE8104018474B
:1056F00010BD00BFE70303004C2D00204156000001
:1057000043682DE9F0411B68076901258D401D4262
:10571000044616460AD11549154840F2BB4223F00B
:10572000ACFB124840F2BB4123F01EFF3B681D4218
:1057300063681B6818BF86F001061D420AD10B4939
:105740000B4840F2914223F098FB084840F2914107
:1057500023F00AFF36B1A368DB6829462046BDE87E
:10576000F0411847A3681B69F7E700BF84F90200FE
:10577000AEF902002DE9F04FAA4DAB4F6B884422E1
:1057800002FB0353043385B0884604463B6023F094
:105790005DFAB8F11F0F00F26385DFE818F0E3004F
:1057A00020005E006A007D008F00A600E7006F0108
:1057B0008501D301E601FB011002250237024A02EE
:1057C0006002760265037803C103DD03F203080477
:1057D000050517052B056105360546055A05934B4A
:1057E0004FF448720021204623F0D3F9904B012258
:1057F00018680221FFF784FF8E4B8F49186823F049
:10580000A2FA8E4B00221A7002258D4C8DF80F5093
:105810002668B768FA68002A40F02585BB684FF40F
:1058200080524FF4A31130469847FB68002B40F09C
:1058300022852468A668F368002B40F021850123A7
:1058400077680DF10F024FF4A3112046B847F368B3
:10585000002B40F01D85A84684E02568022D2BD042
:10586000032D7FD1002364220121204623F091F9EA
:10587000CBE72368023B012B74D86D4B01221868DB
:105880000A21FFF73DFF002340F2E24201212046BA
:1058900023F07FF90425B8E72368032B62D1644B1A
:1058A000002218680A21FFF72BFF664B41F6583299
:1058B0000121204623F06DF90525A6E72368032B77
:1058C00000F0F080022B4DD1584B4FF4FA620021CA
:1058D000204623F05EF95C4B5C4900221A70554B60
:1058E000186823F030FA06258FE704F1700558494F
:1058F000284624F061FE68B14C4B4FF47A620021D7
:10590000204623F046F94B4B5249186823F01BFA06
:1059100007257AE75049284624F04EFE0146002824
:10592000EAD12368032B1DD1474D424E2B780A2B19
:105930000BD928703D4B42F21072204623F029F912
:105940003D49306823F0FFF9FAE0034640F6B832EB
:10595000204623F01EF93D49306823F0F4F92B78F6
:1059600001332B70404605B0BDE8F08F2368032B50
:1059700000F09880022BF5D1384A394904F17000C3
:1059800024F090FE354A3749002024F08BFE08B9F8
:1059900008253AE724F074FD334C304A314900F5CC
:1059A000FA60E060002024F07DFE0028F0D024F0B2
:1059B00067FD2A4A20612D49002024F073FE00284B
:1059C000E6D024F05DFD254A60612949002024F0DD
:1059D00069FE0028DCD024F053FD204AA060244951
:1059E000002024F05FFE0028D2D024F049FD1B4A9D
:1059F00060602049002024F055FE0028C8D024F023
:105A00003FFD234643F8100B93E803008DE80300A5
:105A100094E80F00FEF75CF8174B18603B68C3F87A
:105A20000300B5E7944A00200C2D0020F0FD020091
:105A3000181A00204C2D00205EFE02009C61002000
:105A40000C1A0020FBFD02009961002048FE0200B4
:105A500052FE0200F0FE020061FE0200602D0020F6
:105A6000D0040300F9FE0200302D00204F00030097
:105A7000FBFE0200FDFE0200081A00202368022B34
:105A80000DD18C4B42F210720021204623F081F898
:105A9000894B8A49186823F056F90925B5E6032B86
:105AA0007FF460AF0125B0E6854904F1700024F071
:105AB00083FD58B3834A804D1378022B19D80133E4
:105AC000137000217B4B4FF47A62204623F061F87B
:105AD00028687D4923F037F906252368022B17D162
